:020000040800F2
:1000000000040020C1000008811B0008611E0008D8
:10001000611E0008611E0008611E0008611E0008C4
:10002000611E0008611E0008611E0008611E0008B4
:10003000611E0008611E0008611E0008D11300083F
:10004000611E0008611E0008611E0008611E000894
:10005000611E0008611E0008611E0008611E000884
:10006000611E0008611E0008611E0008611E000874
:10007000611E0008611E0008611E0008D1140008FE
:10008000F1140008611E0008611E0008611E0008CE
:10009000611E0008611E0008611E0008611E000844
:1000A000611E0008611E0008611E0008611E000834
:1000B000310C0008611E0008611E0008611E000866
:1000C00072B6224880F30988022080F31488BFF3B7
:1000D0006F8F01F075FE00F0DBFD1D481D491E4AC3
:1000E000914202DA08600431FAE71C49174A91424A
:1000F00002DA08600431FAE719491A4A1A4B9A429F
:1001000004DA0868106004310432F8E70020174967
:10011000174A914202DA08600431FAE701F068FEFA
:1001200001F056FE134C144DAC4203DA21688847A7
:100130000434F9E700F024F9104C114DAC4203DA15
:10014000216888470434F9E70E4908470006002073
:1001500055555555000000200004002000040020E3
:100160009030000800060020680600206806002085
:10017000600A0020C0000008C0000008C00000089D
:10018000C0000008E11D00080000000000000000A1
:10019000F0B544464D4656465F46F0B46B46CB60DC
:1001A000C3689D46F0BCA046A946B246BB46F0BD1A
:1001B00062B6281CA047002002F072FB02F010FA81
:1001C000014A024B1360FEE704ED00E000000080EE
:1001D000002243088B4274D303098B425FD3030A86
:1001E0008B4244D3030B8B4228D3030C8B420DD399
:1001F000FF22090212BA030C8B4202D31212090227
:1002000065D0030B8B4219D300E0090AC30B8B4264
:1002100001D3CB03C01A5241830B8B4201D38B0312
:10022000C01A5241430B8B4201D34B03C01A5241B7
:10023000030B8B4201D30B03C01A5241C30A8B42FA
:1002400001D3CB02C01A5241830A8B4201D38B02E5
:10025000C01A5241430A8B4201D34B02C01A524189
:10026000030A8B4201D30B02C01A5241CDD2C309FB
:100270008B4201D3CB01C01A524183098B4201D377
:100280008B01C01A524143098B4201D34B01C01A62
:10029000524103098B4201D30B01C01A5241C308DA
:1002A0008B4201D3CB00C01A524183088B4201D349
:1002B0008B00C01A524143088B4201D34B00C01A35
:1002C0005241411A00D20146524110467047FFE7A1
:1002D00001B5002000F00CF802BDC0460029F7D09F
:1002E00076E77047000000000000000000000000FA
:1002F0007047C04600000000000000000000000041
:1003000082B00190024B9B69019A9A6102B07047DA
:10031000680600200000000000000000000000004F
:1003200082B001909023DB0510221A83034B012237
:100330001A83024B02221A8302B07047001400484D
:1003400082B001909023DB0510225A83034B0122D7
:100350005A83024B02225A8302B0704700140048AD
:1003600000B583B00190054B1800FFF7C9FF0820C6
:1003700000F03EF8082000F0CBF8F8E7242F000842
:1003800000B583B001F04CFC01F092FE114A124B13
:100390001100180000F0D4FC104A114B1100180095
:1003A00000F0CEFC0C4B180000F012FD0A4B0021AF
:1003B000180000F01DFD0B4AE42359000A480023F1
:1003C00000931300402202F03BFA084B180002F0A1
:1003D00057FAFAE700060020E00700203406002064
:1003E000FC07002061030008980800201027000087
:1003F00000B585B002006B4607331A700E236B44BC
:10040000FA2292001A806BE0394B9B680E226A44F4
:100410001288534337491800FFF7DAFE03001A0029
:10042000334B0021180000F0ABFC314B9B680E22CF
:100430006A44128853432F491800FFF7C9FE03008E
:100440001A002B4B0121180000F09AFC2A4B9B68E4
:100450000E226A441288534326491800FFF7B8FE5B
:1004600003001A00244B0021180000F089FC224BE5
:100470009B680E226A44128853431E491800FFF7F6
:10048000A7FE03001A001C4B0121180000F078FCA5
:10049000194B9B680E226A44128853431549180071
:1004A000FFF796FE03001A00134B0321180000F01B
:1004B00067FC0E236B440E226A4412880A321A80AB
:1004C0006B4607331B780B4A53430C4A9A18FA239E
:1004D00099001000FFF77CFE0300180002F0D0F92D
:1004E0000E236B441B88064A93428DD905B000BD8C
:1004F000E007002010270000FC070020E7030000B1
:100500000F270000000000000000000000000000B5
:1005100000B585B002006B4607331A700E236B449A
:100520003B4A1A806BE03B4B9B680E226A44128860
:10053000534337491800FFF74BFE03001A00354BB1
:100540000021180000F01CFC324B9B680E226A440C
:10055000128853432E491800FFF73AFE03001A0091
:100560002C4B0121180000F00BFC2B4B9B680E223A
:100570006A441288534326491800FFF729FE0300F6
:100580001A00254B0021180000F0FAFB224B9B6853
:100590000E226A44128853431D491800FFF718FEC3
:1005A00003001A001C4B0121180000F0E9FB1A4B54
:1005B0009B680E226A441288534315491800FFF7BE
:1005C00007FE03001A00144B0321180000F0D8FBAB
:1005D0000E236B440E226A4412880A3A1A806B4634
:1005E00007331B780A4A53430C4A9A18FA23990096
:1005F0001000FFF7EDFD0300180002F041F90E2393
:100600006B441A88FA239B009A428CD805B000BD2F
:1006100010270000E0070020FC070020E70300008F
:1006200010B50B4B180000F07BFB094B04221A7429
:10063000074B8022D2059A61064B180000F070FB30
:10064000044B04221A74034B034A9A6110BDC0463E
:10065000E0070020FC07002000040040000000002C
:1006600000B585B00190019B1B78012B3CD1019A0C
:10067000694B9A4215D1694B684AD26901210A43F4
:10068000DA61664B654A126901210A431A61634BBC
:1006900000221A6103210F2000F00AFD019B604A2D
:1006A0005A61019A5F4B9A4215D15C4B5B4AD26901
:1006B00002210A43DA61594B584A126902210A435E
:1006C0001A61564B00221A610321102000F0F0FC41
:1006D000019B534A5A61019B9B69534A9A61019B52
:1006E0009B69514ADA6117E0019B9B6900221A60FD
:1006F000019B9B6900225A63019B9B6900229A63BC
:10070000019B9B690022DA63019B9B6900221A64AA
:10071000019B9B6900225A62019B5A69019B5B689D
:100720001B6819001000FFF753FD0300013B029303
:10073000019B9B69029A9A62019B9B69019A92684C
:10074000013ADA62019B9B69019A5268D26A5A6047
:1007500000230393019B5B68DB680F221340012B8E
:1007600005D0022B07D1039B022213430393039B63
:10077000012213430393019B5B685B690F221340C3
:10078000012B05D0022B07D1039B20221343039397
:10079000039B102213430393019B5B68DB690F22C9
:1007A0001340012B06D0022B09D1039B802292001B
:1007B00013430393039B8022520013430393019B33
:1007C0005B685B6A0F221340012B06D0022B09D114
:1007D000039B8022920113430393039B80225201C7
:1007E00013430393019B9B69039A1A62019B9B69C4
:1007F00001225A61019B9B6900221A61019B9B693E
:10080000019A5268126BFF218A43DA60019B9B694F
:1008100085221A6005B000BDE007002000100240EC
:10082000006CDC02FC07002068680000000000008B
:1008300084B0039001920B236B440A1C1A70039B33
:100840009A690B236B441B780C339B00D318043339
:10085000019A1A6004B07047000000000000000018
:1008600084B00190019B9B69DB680393039B012289
:1008700013400DD1019B9B69039A01210A43DA6061
:10088000019B9B69019A9269126901210A401A61D0
:1008900004B07047000000000000000000000000ED
:1008A00084B001900A006B4603331A70019B9B6968
:1008B000DB6803936B4603331B7802229A401300D4
:1008C0001A00039B134015D1019B9B696A460332B2
:1008D0001278022191400A001100039A0A43DA605B
:1008E000019B9B696A4603321278022191400A00FB
:1008F000D2431A6104B070470000000000000000FD
:1009000000B585B00190019B9B691B690393019B16
:100910009B69DB68FF221A40039B13400393019BF2
:100920009B69039AD2431A61039B022213400AD0A7
:10093000019B5B681B69002B05D0019B5B681B69F1
:10094000019A10009847039B042213400AD0019B90
:100950005B689B69002B05D0019B5B689B69019AD2
:1009600010009847039B082213400AD0019B5B6844
:100970001B6A002B05D0019B5B681B6A019A100063
:100980009847039B102213400AD0019B5B689B6A27
:10099000002B05D0019B5B689B6A019A1000984769
:1009A000039B012213400AD0019B5B689B68002BCC
:1009B00005D0019B5B689B68019A1000984705B0C1
:1009C00000BDC04600000000000000000000000064
:1009D00072B6704700000000000000000000000038
:1009E00062B6704700000000000000000000000038
:1009F00010B5FFF7EDFF10BD000000000000000083
:100A000010B5FFF7EDFF10BD000000000000000072
:100A100010B5FFF7EDFF10BD000000000000000062
:100A200010B5FFF7EDFF10BD000000000000000052
:100A300082B00190019B5A69019B9B699A4205D142
:100A4000019B9B68002B01D0012300E000231A1CAE
:100A500001231340DBB2180002B070470000000011
:100A600010B5FFF7D5FF10BD00000000000000002A
:100A700010B5FFF7D5FF10BD00000000000000001A
:100A800000B583B001900091009A019B11001800FD
:100A900001F03EF903B000BD0000000000000000BE
:100AA00000B585B00190009100230393009B0822BC
:100AB000134003D0039B802213430393009B012226
:100AC000134003D0039B202213430393009B022275
:100AD000134003D0039B402213430393009B042243
:100AE000134004D0039B8022520013430393FFF76B
:100AF000B7FF019B0433039A11001800FFF7C0FFF2
:100B0000FFF7B6FF05B000BD0000000000000000C8
:100B100000B587B00190019B5B6F0593059B1B6837
:100B20000493059BDB690393059B039A1A62039B5D
:100B30000F22134005D0039A019B11001800FFF704
:100B4000AFFF039A80235B0013400BD0FFF788FFB1
:100B5000019B1A1D80239B0019001000FFF790FFD6
:100B6000FFF786FF039B202213400CD0FFF778FF8E
:100B7000059B9B8C9BB2DAB2019B1100180000F020
:100B80006FFAFFF775FF049B8022134023D0039B6D
:100B9000802213401FD0FFF763FF019B3033180002
:100BA00000F0B6FE03000293029B002B0DDA019BBE
:100BB000043308211800FFF763FF049BC02293430E
:100BC00040221A43059B1A6003E0029B9AB2059BE0
:100BD0001A85FFF74DFF039B4022134016D0FFF705
:100BE0003FFF019B30331800FFF722FF031E05D0A3
:100BF000019B043310211800FFF742FF049B4022A1
:100C000093431A00059B1A60FFF732FF07B000BD3F
:100C100082B00190034B034A126880210A431A6094
:100C200002B07047004400400000000000000000D7
:100C300000B583B073460193044B1800FFF768FFBB
:100C4000019B180000F0B4FF03B000BD180800209D
:100C500010B5084A084B0021180000F0D1F9064BE6
:100C6000064A5A67044B064A9A6703211C2000F083
:100C70001FFA10BD110C00081808002000440040A5
:100C8000006CDC020000000000000000000000001A
:100C900010B500F0DDFA10BD0000000000000000FB
:100CA0007047C04600000000000000000000000087
:100CB00072B6704700000000000000000000000055
:100CC00062B6704700000000000000000000000055
:100CD00010B5FFF7EDFF10BD0000000000000000A0
:100CE00010B5FFF7EDFF10BD000000000000000090
:100CF00010B5FFF7EDFF10BD000000000000000080
:100D000010B5FFF7EDFF10BD00000000000000006F
:100D100010B5FFF785FC10BD0000000000000000CA
:100D200082B00190019B01221A70019B00225A603F
:100D3000019B0022DA60019B00221A7402B0704706
:100D400000B583B001900091FFF7D2FF019B009A9C
:100D50005A60009B5A68019B9A60019B1800FFF73C
:100D60007FFC019B0022DA60019B02221A70FFF7D0
:100D7000C7FF03B000BDC046000000000000000037
:100D800000B585B0039001920B236B440A1C1A70C6
:100D9000FFF7AEFF039BDA680B236B441B7801213E
:100DA00099400B001A43039BDA60019A0B236B44B2
:100DB0001978039B1800FFF73BFDFFF7A1FF05B073
:100DC00000BDC04600000000000000000000000060
:100DD00000B583B00190FFF78BFF019B1800FFF770
:100DE0003FFDFFF78DFF03B000BDC04600000000CF
:100DF00000B583B001900A006B4603331A70FFF709
:100E000077FF6B4603331A78019B11001800FFF738
:100E100047FDFFF775FF03B000BDC04600000000AE
:100E200082B00190019B019A1A6002B07047C046DF
:100E300082B00190019B9B685A425341DBB218007B
:100E400002B0704700000000000000000000000039
:100E500000B583B00190019B1800FFF7E1FF03B0DC
:100E600000BDC046000000000000000000000000BF
:100E700000B583B001900091009A019B1100180009
:100E800000F046FF03B000BD0000000000000000BD
:100E900000B585B0039002910192039B3033180096
:100EA00001235B42019A029900F062FD03001800E1
:100EB00005B000BD000000000000000000000000C0
:100EC00000B585B0039002910192039B0C3318008A
:100ED00001235B42019A029900F052FC03001800C2
:100EE00005B000BD00000000000000000000000090
:100EF00000B583B001900A006B4603331A70019B62
:100F00003033180001235A426B4603331B78190013
:100F100000F0B6FC0300180003B000BD00000000A4
:100F200000B583B00190019B0C331A0001235B4292
:100F30001900100000F0DCFB0300180003B000BD36
:100F400000B585B0039001920B236B440A1C1A7004
:100F5000039B30331800019A0B236B441B78190054
:100F600000F08EFC0300180005B000BD000000007A
:100F700000B583B001900091019B0C33009A1100E1
:100F8000180000F0B5FB0300180003B000BDC04618
:100F900000B585B00390029101920093039B30331A
:100FA0001800009B019A029900F0E2FC030018006F
:100FB00005B000BD000000000000000000000000BF
:100FC00000B585B00390029101920093039B0C330E
:100FD0001800009B019A029900F0D2FB0300180050
:100FE00005B000BD0000000000000000000000008F
:100FF00010B5FFF72DFE10BD00000000000000003E
:1010000000B587B0059004910392059B124A1A60BF
:10101000059B04331800FFF71BFF059B01221A7282
:10102000059B0C331800059B54331900049A059B4B
:1010300000931300102200F0FBFA059B30331800D8
:10104000059B64331900039A059B0093130010223B
:1010500000F0EEFB07B000BDE02F0008000000002C
:1010600000B583B001900A006B4603331A70019BF0
:101070000C331800FFF7DCFE031E05D0019B043380
:1010800004211800FFF7F4FE019B0C331A006B4695
:1010900003331B781900100000F0F2FA031E05DA82
:1010A000019B043380211800FFF7E2FE03B000BD6E
:1010B00030B583B0019000911B4C019B9B081A49ED
:1010C000019A9208C03292005258019903200140BF
:1010D000C900FF2088400100C9431140009A9001D7
:1010E000019A03252A40D200904002000A43C033EF
:1010F0009B001A510C49019B5B09019A1F20024079
:1011000001209040020060339B005A500649019B29
:101110005B09019A1F2002400120904002009B00C1
:101120005A5003B030BDC04600E100E000000000AE
:1011300030B583B001900091144C019B0F221340F5
:10114000083B9908114A019B0F200340083B9B086C
:1011500006339B00D31804331B68019A0320024016
:10116000D200FF2090400200D2431A40009B980119
:10117000019B03252B40DB00984003001A438B1D85
:101180009B00E31804331A6003B030BD00ED00E0AB
:10119000154B154A1268802149000A431A60134B07
:1011A0001A6AC0239B001A4080239B009A4206D0F3
:1011B0000E4B802252021A620C4B00221A620B4B19
:1011C0001A6A80231B0213400DD1084B074A126A8A
:1011D000802189000A431A62044B044A126A802162
:1011E00009020A431A627047007000400010024072
:1011F00010B5124B9B6A114B012252429A620F4B5F
:1012000000229A620D4B1B690C4B012252421A615B
:101210000A4B00221A61094B084AD26808490A435E
:10122000DA60064B0022DA60044B044AD26980215E
:1012300049050A43DA61FFF7ABFF10BD0010024019
:10124000FFFFBFFF000000000000000000000000E2
:10125000394B394A126801210A431A60364B1B6820
:1012600002221340FAD0344B334A526803218A4396
:101270005A60314B304A52685A602F4B5B680C22DF
:101280001340FAD12C4B2C4A1268F9210A401A60FB
:10129000294B00225A60284B274A526B01210A43EE
:1012A0005A63254B5B6B02221340FAD0224B224A31
:1012B000526B802149020A435A631F4B5A6B8023A9
:1012C0009B021340F9D01C4B1B4A526A01210A436E
:1012D0005A62194B5B6A02221340FAD0164BA022C5
:1012E00092035A60144B0022DA62134B00221A63F5
:1012F000114B114A1268802149040A431A600E4BAF
:101300001A6880239B041340F9D00C4B11221A60F9
:10131000094B094A526802210A435A60064B5B682E
:101320000C221340082BF9D1034B034A9269012187
:101330000A439A617047C0460010024000200240F4
:1013400072B67047000000000000000000000000BE
:1013500062B67047000000000000000000000000BE
:1013600010B5FFF7EDFF10BD000000000000000009
:1013700010B5FFF7EDFF10BD0000000000000000F9
:1013800010B5FFF7EDFF10BD0000000000000000E9
:1013900010B5FFF7EDFF10BD0000000000000000D9
:1013A00010B5FFF7EDFF10BD0000000000000000C9
:1013B00010B5FFF7EDFF10BD0000000000000000B9
:1013C00010B500F0B5FE10BD0000000000000000E8
:1013D00000B583B073460193FFF7E2FFFFF7F0FF1C
:1013E000FFF7E6FF019B180000F0E2FB03B000BD31
:1013F00010B5074B074A5A60054B00229A60044B10
:1014000007221A6002210B20FFF792FE10BDC04692
:1014100010E000E0BF12000000000000000000002B
:1014200082B001900091009B5A68019B5A60009B1A
:101430009A68019B9A60009BDA68019BDA60009BC6
:101440001A69019B5A61009B5A69019B1A62009BB1
:101450009A69019B5A62009B1A68019B1A6002B04C
:101460007047C046000000000000000000000000BF
:1014700000B583B00190124B114A52699C21C903F7
:101480000A435A61019A9023DB0511001800FFF707
:10149000C7FF019B1C330B4A19001000FFF7C0FF68
:1014A000019B3833084A19001000FFF7B9FF019B70
:1014B0005433064A19001000FFF7B2FF03B000BD15
:1014C00000100240000400480008004800140048D2
:1014D00000B583B073460193044B1800FFF710FA70
:1014E000019B180000F064FB03B000BDE007002082
:1014F00000B583B073460193044B1800FFF700FA60
:10150000019B180000F054FB03B000BDFC07002055
:1015100072B67047000000000000000000000000EC
:1015200062B67047000000000000000000000000EC
:1015300082B00190019B019A1A60019B019A5A6046
:1015400002B0704700000000000000000000000032
:1015500010B5FFF7DDFF10BD000000000000000027
:1015600010B5FFF7DDFF10BD000000000000000017
:1015700000B583B00190019B1800FFF7D9FF03B0BD
:1015800000BDC04600000000000000000000000098
:1015900082B00190019B9B685A425341DBB2180014
:1015A00002B07047000000000000000000000000D2
:1015B00082B00190019B5A69019B9B699A4205D1B7
:1015C000019B9B68002B01D0012300E000231A1C23
:1015D00001231340DBB2180002B070470000000086
:1015E00082B00190019B5A69019B9B699A4205D187
:1015F000019B9B68002B01D0012300E000231A1CF3
:1016000001231340DBB2180002B070470000000055
:1016100082B00190019B9B685A425341DBB2180093
:1016200002B0704700000000000000000000000051
:1016300000B585B00390029101920093039B1800BE
:10164000FFF796FF039B00229A60039B029ADA60E1
:10165000039B029A9A61039B029A5A61029A019B28
:10166000D218039B1A61039B009ADA61039B069AC6
:101670001A6205B000BDC046000000000000000076
:1016800000B583B001900A006B4603331A70019BCA
:101690001800FFF78DFF031E02D004235B421DE0FC
:1016A000019B9B685A1C019B9A60019B5B69591CBA
:1016B000019A51616A46033212781A70019B5A6985
:1016C000019B1B699A4203D3019BDA68019B5A6113
:1016D000019B0021180000F0E3FA0023180003B07A
:1016E00000BDC04600000000000000000000000037
:1016F00000B585B001900091FFF72AFF019BDB69DF
:10170000002B14D0019BDB69019A100098470EE072
:10171000019B009A1100180000F0A2FA0300039345
:10172000039B002B03DAFFF71BFF039B22E0019BC7
:101730001800FFF72DFF031EEAD1019B9B685A1E7C
:10174000019B9A60019B9B69591C019A91610B2234
:101750006A441B781370019B9A69019B1B699A422A
:1017600003D3019BDA68019B9A61FFF7F9FE0B2313
:101770006B441B78180005B000BDC0460000000097
:1017800000B587B00390029101920093039BDB693F
:10179000049300230593FFF7DBFE049B002B10D07E
:1017A000039A049B100098470BE0039B009A1100DA
:1017B000180000F055FA031E03D0FFF7D1FE059B79
:1017C0002EE0039B1800FFF7E3FE031EEDD1039B01
:1017D0009B685A1E039B9A60029B5A1C0292039AB2
:1017E0009269501C0399886112781A70039B9A6958
:1017F000039B1B699A4203D3039BDA68039B9A619C
:10180000FFF7AEFE059B01330593019B013B01935E
:10181000019B002B01D1059B02E0FFF799FEBCE77D
:10182000180007B000BDC046000000000000000026
:1018300000B585B00390029101920093039B1800BC
:10184000FFF796FE039B019A9A60039B029ADA6067
:10185000039B029A9A61039B029A5A61029A019B26
:10186000D218039B1A61039B009ADA61039B069AC4
:101870001A6205B000BDC046000000000000000074
:1018800000B587B0039001920B236B440A1C1A70B9
:10189000FFF75EFE0EE0039B019A1100180000F0B6
:1018A000DFF903000593059B002B03DAFFF758FED1
:1018B000059B29E0039B1800FFF7AAFE031EEAD14F
:1018C000039B9B685A1E039B9A60039B5B69591C90
:1018D000039A51610B226A4412781A70039B5A6969
:1018E000039B1B699A4203D3039BDA68039B5A61EB
:1018F000039BDB69002B04D0039BDB69039A100078
:101900009847FFF72DFE0023180007B000BDC04622
:1019100000B585B00190019B1800FFF761FE031E22
:1019200002D003235B421FE0019B9B685A1C019B72
:101930009A60019B9B69591C019A91610F226A442C
:101940001B781370019B9A69019B1B699A4203D310
:10195000019BDA68019B9A61019B0021180000F04D
:101960009FF90F236B441B78180005B000BDC046DB
:1019700000B587B00390029101920093039BDB694D
:10198000049300230593FFF7E3FD0BE0039B009A0C
:101990001100180000F064F9031E03D0FFF7E0FD0A
:1019A000059B35E0039B1800FFF732FE031EEDD1C7
:1019B000039B9B685A1E039B9A60039B5B69591C9F
:1019C000039A5161029A511C029112781A70039B7A
:1019D0005A69039B1B699A4203D3039BDA68039BF2
:1019E0005A61049B002B03D0039A049B1000984774
:1019F000FFF7B6FD059B01330593019B013B019366
:101A0000019B002B01D1059B02E0FFF7A1FDC9E777
:101A1000180007B000BDC046000000000000000034
:101A200072B67047000000000000000000000000D7
:101A300062B67047000000000000000000000000D7
:101A400010B5FFF7EDFF10BD000000000000000022
:101A500010B5FFF7EDFF10BD000000000000000012
:101A6000064B0733072293431A00054B1A60054BB8
:101A7000072293431A00044B1A607047600A002043
:101A8000B807002000180020BC070020000000005C
:101A900000B585B00190FFF7D3FF019B180000F05F
:101AA0000FF803000393FFF7D3FF039B180005B063
:101AB00000BDC04600000000000000000000000063
:101AC00084B00190019B07330722934301930C4B91
:101AD0001B681A000B4B1B68D31A1A00019B9A4211
:101AE00001D2002309E0074B1B680393054B1A68DA
:101AF000019BD218034B1A60039B180004B0704777
:101B0000BC070020B8070020000000000000000013
:101B100010B5074B074A1A60054B00229A60044B28
:101B20000022DA60044B180000F0E2F810BDC04655
:101B3000C0070020911A0008D00700200000000014
:101B400072B67047000000000000000000000000B6
:101B500062B67047000000000000000000000000B6
:101B600010B5FFF7EDFF10BD000000000000000001
:101B700010B5FFF7EDFF10BD0000000000000000F1
:101B800010B582B0EFF309831C0023000193019B81
:101B900020330193019B0093009B83F30988FFF797
:101BA000E7FF02B010BDC0460000000000000000CA
:101BB00010B584B00190019B0F331DD0FFF7D0FF0B
:101BC000EFF309831C0023000393039B203B039343
:101BD000039B0293029B83F30988039B8022520498
:101BE000DA6100F0ADFC031E03D0039B034A9A6147
:101BF00002E0039B024A9A6104B010BDBD010008D7
:101C0000C00100080000000000000000000000000B
:101C10007047C04600000000000000000000000007
:101C200010B5FFF7F5FFFFF7E3FA064B1800FFF7D3
:101C30001FFCFFF76DF8FFF7DBF9FFF731F800F055
:101C400007F810BD00300008000000000000000090
:101C500010B5FFF7CDFB10BD000000000000000034
:101C600000B583B001900091009B002B02D10123AD
:101C70005B420CE0074B9B69019A1100180000F0D1
:101C80000FFD009B1900042000F0F2FB0300180078
:101C900003B000BD68060020000000000000000046
:101CA00000B583B001900091019B180000F0D8FCB2
:101CB000031E05D0009A019B1100180000F040FDA2
:101CC00003B000BD000000000000000000000000A4
:101CD00082B00190019B019A1A60019B019A5A609F
:101CE00002B070470000000000000000000000008B
:101CF00000B583B00190019B1800FFF7E9FF019B3D
:101D000000229A6003B000BD000000000000000047
:101D100000B585B001900091019B1B68039319E009
:101D2000039BDA68009B1A43039BDA60009B002B3D
:101D300005D0039BDA68039B1B69134007D0039B04
:101D40005A68039B9B681900100000F009F8039B78
:101D50001B680393039A019B9A42E1D105B000BD31
:101D600000B583B001900091019B5A6B009B1A4310
:101D7000019B5A63019B1B7F0A2B05D1019B5A6B68
:101D8000019B1B6A13400CD1019B1B7F0B2B0FD1B6
:101D9000019B5A6B019B1B6A1A40019B1B6A9A426A
:101DA00006D1019B00221A62019B180000F0E0FAA4
:101DB00003B000BD000000000000000000000000B3
:101DC0007047C04600000000000000000000000056
:101DD0007047C04600000000000000000000000046
:101DE000FEE7C04600000000000000000000000008
:101DF00084B0164B0393039B1B680293039B5B68A1
:101E0000019309E0029B1A68019B1A60019B04334D
:101E10000193029B04330293039B9A68019B9A42AD
:101E2000F0D805E0019B00221A60019B0433019366
:101E3000039BDA68019B9A42F4D8039B1033039307
:101E4000039A034B9A42D6D304B07047402F000840
:101E5000C02F00080000000000000000000000008B
:101E6000FEE7C04600000000000000000000000087
:101E700030B583B0020000916B4607331A706B4691
:101E800007331B787F2B36D9324C6B4607331B78D0
:101E90001A000F231340083B99082E4A6B4607335C
:101EA0001B7818000F230340083B9B0806339B0058
:101EB000D31804331B686A460732127810000322D5
:101EC0000240D200FF2090400200D2431A40009B03
:101ED0009B01FF2018406B4607331B781D0003232E
:101EE0002B40DB00984003001A438B1D9B00E31836
:101EF00004331A602BE0184C6B4607331B785BB237
:101F00009B0815496A460732127852B29208C032CD
:101F100092005258694607310978080003210140B0
:101F2000C900FF2088400100C9431140009A920176
:101F3000FF2010406A4607321278150003222A401B
:101F4000D200904002000A43C0339B001A5103B0F4
:101F500030BDC04600ED00E000E100E00000000000
:101F600010B502235B4200211800FFF781FF10BD6E
:101F700072B6704700000000000000000000000082
:101F800062B6704700000000000000000000000082
:101F900010B5FFF7EDFF10BD0000000000000000CD
:101FA00010B5FFF7EDFF10BD0000000000000000BD
:101FB00062B6704700000000000000000000000052
:101FC0007047C04600000000000000000000000054
:101FD00010B5FFF7EDFF10BD00000000000000008D
:101FE00010B5FFF7D5FF10BD000000000000000095
:101FF00010B5FFF7D5FF10BD000000000000000085
:1020000000B583B0184B9B6A5A1C174B9A62164B4B
:10201000DA69164B9A4224D0134BDB699A68013A6D
:102020009A6019E0104BDB690193019BDB68009318
:10203000019B0022DA60019B1B680C4A5A60019BDD
:102040001A68094BDA61FFF7D3FF019B1A69009BFD
:1020500010009847FFF7C4FF034BDB699B68002B18
:10206000E0D003B000BDC046680600208406002012
:1020700082B00190024B9B69019A9A6102B070474D
:1020800068060020000000000000000000000000C2
:1020900082B001900091019B009A9A6102B0704752
:1020A00000B583B00190FFF78BFFFCE70000000054
:1020B00000B585B0FFF754FF00F042F900F040F89A
:1020C000FFF7CEFCFFF724FD124B4021180000F073
:1020D0004FFB0200104B9A610F4B9B6901221A774C
:1020E000FFF776FF0D4B1800FFF7C2FF0C4A0D48B3
:1020F0000023009313000122D82100F0A1FB03006C
:102100000393094A039B11001800FFF7C1FF05B0B4
:1021100000BDC0469806002068060020C02F0008B9
:10212000A1200008E0060020302F00080000000079
:1021300010B5FFF765FF10BD0000000000000000B3
:10214000064B074ADA61054B054A1A62034B012226
:1021500052425A62014B00229A6270476806002080
:1021600084060020000000000000000000000000C5
:1021700086B00390029101920093039B009A1A612A
:10218000039B019ADA60029B0493174BDB6905936A
:1021900007E0059B9B68049AD31A0493059B1B6870
:1021A0000593059B9A68049B9A42F2D3039B059A78
:1021B0001A60039B1B685A68039B5A60039B5B6809
:1021C000039A1A60059B039A5A60039B049A9A60CB
:1021D000059B9A68049BD21A059B9A60024B0122C8
:1021E00052425A6206B070476806002000000000A4
:1021F00082B00190019B1B68019A12689168019A54
:1022000092688A189A60019B5B68019A12681A604A
:10221000019B1B68019A52685A60019B0022DA6098
:10222000024B012252425A6202B0704768060020F7
:1022300072B67047000000000000000000000000BF
:1022400062B67047000000000000000000000000BF
:1022500010B5FFF7EDFF10BD00000000000000000A
:1022600010B5FFF7EDFF10BD0000000000000000FA
:1022700082B00190019B019A1A60019B019A5A60F9
:1022800002B07047000000000000000000000000E5
:1022900084B00190019B1B680393039B1A68019B08
:1022A0001A60019B1B68019A5A60039B180004B0D6
:1022B0007047C04600000000000000000000000061
:1022C00082B00190019B5B68019A12681A60019BC1
:1022D0001B68019A52685A60019B180002B070474F
:1022E00010B5FFF7B5FF10BD0000000000000000B2
:1022F00010B5FFF7B5FF10BD0000000000000000A2
:1023000082B00190019BDB685A1E9341DBB218003A
:1023100002B0704700000000000000000000000054
:1023200082B00190019B9B685A1C019B9A6002B08D
:102330007047C046000000000000000000000000E0
:1023400010B5074B1800FFF793FF054B00229A606A
:10235000034B034A1A61024B014A5A6110BDC04641
:1023600068060020000000000000000000000000DF
:1023700084B00190019B00221A770E4B0393039BBC
:102380001B680393039B9A68019B9B689A42F6D251
:10239000019B039A1A60039B5A68019B5A60019B38
:1023A0005B68019A1A60039B019A5A60019B1800AE
:1023B00004B0704768060020000000000000000024
:1023C00000B585B002006B4607331A700D4B9B6950
:1023D0000393039B6A46073212781A77094B180059
:1023E000FFF756FF0200074B9A61064B9B690122DB
:1023F0001A77044B9B69039A11001800FDF7C8FE79
:1024000005B000BD680600200000000000000000CC
:1024100000B585B00190019B0393FFF761FF039B1B
:102420001B7F072B15D89A00104BD3181B689F46AB
:10243000FFF75EFF17E0039B1B6A00221A6008E0AB
:10244000039B1B6A1800FFF76BFF039B1800FFF745
:1024500037FF039B012252421A62039B1800FFF7C9
:1024600087FFFFF745FF05B000BDC046703000088C
:1024700000B589B0020000916B4607331A70009BCB
:10248000013317D0114B9B69114A009903A8FFF73C
:102490006FFE6B4607331B781800FFF791FF03AB05
:1024A0001800FFF72DFF031E0AD003AB1800FFF73B
:1024B0009FFE05E06B4607331B781800FFF780FF8F
:1024C000024B9B691B6A180009B000BD680600201A
:1024D00011240008000000000000000000000000BF
:1024E00000B585B001900091019B009A1A62019B92
:1024F0009A680F4B9B699B689A4204D8019B18000D
:10250000FFF736FF12E00A4B9B691800FFF730FF18
:1025100003000393064B019A9A61019B01221A77EB
:10252000039A019B11001800FDF732FE05B000BDB3
:10253000680600200000000000000000000000000D
:1025400082B0084B1B689B680193064B9B699B6894
:102550000093019B009A9A429B415B42DBB21800B8
:1025600002B0704768060020000000000000000074
:1025700000B583B0194B9B690093184B1800FFF707
:1025800087FE0200154B9A61144B9B6901221A7752
:10259000009B00221A77114B0193019B1B6801934A
:1025A000019B9A68009B9B689A42F6D8009B019A0F
:1025B0001A60019B5A68009B5A60009B5B68009AF6
:1025C0001A60019B009A5A60044B9B69009A1100A3
:1025D0001800FDF7DDFD03B000BDC0466806002011
:1025E00010B5FFF7C5FF10BD00000000000000009F
:1025F00072B67047000000000000000000000000FC
:1026000062B67047000000000000000000000000FB
:1026100082B00190019B019A1A6002B07047C046D7
:1026200082B00190019B1A68019BD31A5A1E9341F4
:10263000DBB2180002B0704700000000000000008C
:1026400082B00190019B019A1A60019B019A5A6025
:1026500002B0704700000000000000000000000011
:1026600082B00190019B1A68019BD31A5A1E9341B4
:10267000DBB2180002B0704700000000000000004C
:1026800084B00190019B1B680393039B1A68019B14
:102690001A60039B180004B07047C0460000000099
:1026A00082B001900091019B009A1A60009B5A68C9
:1026B000019B5A60019B5B68019A1A60009B019A1A
:1026C0005A6002B07047C0460000000000000000E1
:1026D00084B00190019B1B680393039B1A68019BC4
:1026E0001A60019B1B68019A5A60039B180004B092
:1026F0007047C0460000000000000000000000001D
:1027000010B5FFF775FF10BD0000000000000000CD
:1027100010B5FFF775FF10BD0000000000000000BD
:1027200000B583B00190019B19000820FFF7A0FEBF
:1027300003B000BD00000000000000000000000029
:1027400000B585B001900091019B1800FFF7C0FF14
:1027500003000393039B009A1A62039B1800FFF780
:1027600007FE05B000BDC0460000000000000000EC
:1027700000B583B001900091019B009A9A60019B83
:1027800002221A77019B00225A77019B009ADA6392
:10279000019B00229A63019B00225A63019B012244
:1027A0009A77019B00229A61019B0D4A1A610C4B9A
:1027B0005A69019B5A61019B5B69019A1A61084B36
:1027C000019A5A61019B24331800FFF721FF019BF6
:1027D00028331800FFF734FF019B180003B000BD39
:1027E000680600200000000000000000000000005B
:1027F00000B587B00390029101920093039B05936B
:10280000029B243B039AD218059BDA60059BDB6888
:10281000009A1A61059BDB68089A5A61059BDB6880
:10282000054A1A62019A059B11001800FFF7A0FFE4
:102830000300180007B000BDB1010008000000004F
:1028400010B588B00590049103920293FFF758FFEA
:10285000029C039A049905980A9B00932300FFF7B2
:10286000C7FF03000793079B00211800FFF738FEFE
:10287000FFF74EFF079B180008B010BD00000000D6
:1028800000B583B00190FFF73BFF019B1800FFF7F5
:1028900047FFFFF73DFF03B000BDC046000000004A
:1028A00000B583B00190FFF72BFF019B180000F0EB
:1028B00007F803B000BDC0460000000000000000A3
:1028C00000B585B00190164B9B690393039B019A59
:1028D0001A6208E0039B24331800FFF7D1FE0300BF
:1028E0001800FFF745FD039B24331800FFF798FEFF
:1028F000031EEFD1039B5B7F1A000323134009D112
:10290000039B5B69039A12691A61039B1B69039A13
:1029100052695A610F20FFF753FD05B000BDC04654
:102920006806002000000000000000000000000019
:10293000546872656164732C20656E717565756984
:102940006E672074657374202331000054687265CB
:102950006164732C20656E71756575696E6720748E
:102960006573742023320000546872656164732CAF
:10297000207072696F72697479206368616E67652F
:1029800000000000546872656164732C2064656CFB
:102990006179730053656D6170686F7265732C2087
:1029A000656E71756575696E6700000053656D61D0
:1029B00070686F7265732C2074696D656F75740033
:1029C00053656D6170686F7265732C2061746F6DF3
:1029D0006963207369676E616C2D776169740000AB
:1029E00042696E6172792053656D6170686F7265BE
:1029F000732C2066756E6374696F6E616C6974798F
:102A0000000000004D7574657865732C2070726944
:102A10006F7269747920656E71756575696E67206E
:102A200074657374000000004D7574657865732CCF
:102A3000207072696F726974792072657475726E34
:102A4000000000004D7574657865732C2073746107
:102A500074757300436F6E645661722C20736967DE
:102A60006E616C207465737400000000436F6E64C7
:102A70005661722C2062726F61646361737420749A
:102A800065737400436F6E645661722C20626F6FC1
:102A900073742074657374004D6573736167657337
:102AA0002C206C6F6F7000004D61696C626F7865EF
:102AB000732C2071756575696E6720616E64207472
:102AC000696D656F757473004576656E74732C203F
:102AD000726567697374726174696F6E20616E6488
:102AE0002064697370617463680000004576656EE8
:102AF00074732C207761697420616E642062726F38
:102B000061646361737400004576656E74732C2094
:102B100074696D656F7574730000000048656170BD
:102B20002C20616C6C6F636174696F6E20616E64E0
:102B300020667261676D656E746174696F6E207472
:102B4000657374004D656D6F727920506F6F6C7393
:102B50002C2071756575652F6465717565756500E7
:102B600044796E616D696320415049732C2074680B
:102B70007265616473206372656174696F6E20664B
:102B8000726F6D20686561700000000044796E61AD
:102B90006D696320415049732C20746872656164CB
:102BA00073206372656174696F6E2066726F6D2049
:102BB0006D656D6F727920706F6F6C0044796E6116
:102BC0006D696320415049732C2072656769737485
:102BD000727920616E64207265666572656E6365E8
:102BE000730000005175657565732C20696E7075F2
:102BF0007420717565756573000000005175657509
:102C000065732C206F7574707574207175657565AA
:102C10007300000053797374656D2C2063726974BE
:102C20006963616C207A6F6E657300005379737409
:102C3000656D2C20696E746572727570747320688E
:102C4000616E646C696E670053797374656D2C20D6
:102C5000696E746567726974790000002D2D2D20EE
:102C600053636F7265203A2000000000206D736787
:102C7000732F532C20000000206374787377632F28
:102C80005300000042656E63686D61726B2C206DAD
:102C900065737361676573202331000042656E635D
:102CA000686D61726B2C206D65737361676573204D
:102CB0002332000042656E63686D61726B2C206D7B
:102CC00065737361676573202333000042656E632B
:102CD000686D61726B2C20636F6E746578742073FD
:102CE00077697463680000002074687265616473BA
:102CF0002F53000042656E63686D61726B2C207407
:102D00006872656164732C2066756C6C20637963EE
:102D10006C65000042656E63686D61726B2C207497
:102D20006872656164732C20637265617465206FDD
:102D30006E6C79002072657363686564756C657389
:102D40002F532C200000000042656E63686D617295
:102D50006B2C206D61737320726573636865647595
:102D60006C652C2035207468726561647300000006
:102D700042656E63686D61726B2C20726F756E6454
:102D800020726F62696E20636F6E74657874207351
:102D90007769746368696E67000000002062797467
:102DA00065732F530000000042656E63686D6172A9
:102DB0006B2C20492F4F2051756575657320746801
:102DC000726F756768707574000000002074696D1B
:102DD0006572732F5300000042656E63686D617207
:102DE0006B2C207669727475616C2074696D6572E4
:102DF00073207365742F7265736574002077616941
:102E0000742B7369676E616C2F53000042656E63AB
:102E1000686D61726B2C2073656D6170686F72658F
:102E20007320776169742F7369676E616C000000AD
:102E3000206C6F636B2B756E6C6F636B2F53000090
:102E400042656E63686D61726B2C206D7574657878
:102E50006573206C6F636B2F756E6C6F636B000016
:102E60002D2D2D2053797374656D3A2000000000DC
:102E700020627974657300002D2D2D2054687265D1
:102E800061643A20000000002D2D2D2054696D65ED
:102E900072203A20000000002D2D2D2053656D6119
:102EA00070683A20000000002D2D2D204576656EBB
:102EB00074533A20000000002D2D2D204576656EBC
:102EC000744C3A20000000002D2D2D204D757465A6
:102ED00078203A20000000002D2D2D20436F6E64D5
:102EE000562E3A20000000002D2D2D2051756575BD
:102EF00065203A20000000002D2D2D204D61696CC9
:102F0000422E3A200000000042656E63686D6172D7
:102F10006B2C2052414D20666F6F747072696E7415
:102F2000000000004C4544000000000000000000CC
:102F300069646C65000000000000000000000000F3
:102F4000F8300008600A0020600A0020600A0020B3
:102F5000F830000800000000000000000000000041
:102F6000F830000800000000000000000000000031
:102F7000F830000800000000000000000000000021
:102F8000F830000800000000000000000000000011
:102F9000F830000800000000000000000000000001
:102FA000F8300008000000000000000000000000F1
:102FB000F8300008000000000000000000000000E1
:102FC0006D61696E00164418040444080C1014184E
:102FD000001C1D1E0000000000000000000000009A
:102FE000910E0008C10E0008F10E0008210F000824
:102FF000410F0008710F0008910F0008C10F000871
:103000000AA1002800000000FFFFFFFF555555658D
:10301000EFFF000022000011000000000800000087
:1030200000000000FFFFFFFF55555555FFFF000052
:103030001000000000000000000000000000000080
:10304000FFFFFFFF55555555FFFF00000000000032
:10305000000000000500000000000000FFFFFFFF6F
:1030600055555555FCFF0000000000000000000011
:103070003024000852240008522400083624000896
:103080004A24000840240008522400084A2400086A
:10309000102700008000000021030008010000004C
:1030A00041030008010000000000000000000000D3
:1030B0000000000000000000000000000000000010
:1030C0000000000010270000800000000000000049
:1030D00001000000000000000100000000000000EE
:1030E00000000000000000000100000000000000DF
:0830F0000000000000000000D8
:04000005080000C12E
:00000001FF
